{
  "contractName": "EnergyTrade",
  "abi": [
    {
      "inputs": [
        {
          "internalType": "contract IERC20",
          "name": "token",
          "type": "address"
        }
      ],
      "stateMutability": "nonpayable",
      "type": "constructor"
    },
    {
      "anonymous": false,
      "inputs": [
        {
          "indexed": false,
          "internalType": "address",
          "name": "from",
          "type": "address"
        }
      ],
      "name": "prosumerPago",
      "type": "event"
    },
    {
      "inputs": [],
      "name": "owner",
      "outputs": [
        {
          "internalType": "address",
          "name": "",
          "type": "address"
        }
      ],
      "stateMutability": "view",
      "type": "function",
      "constant": true
    },
    {
      "inputs": [
        {
          "internalType": "uint256",
          "name": "",
          "type": "uint256"
        }
      ],
      "name": "prosumer",
      "outputs": [
        {
          "internalType": "address",
          "name": "",
          "type": "address"
        }
      ],
      "stateMutability": "view",
      "type": "function",
      "constant": true
    },
    {
      "inputs": [],
      "name": "prosumerCount",
      "outputs": [
        {
          "internalType": "uint256",
          "name": "",
          "type": "uint256"
        }
      ],
      "stateMutability": "view",
      "type": "function",
      "constant": true
    },
    {
      "inputs": [
        {
          "internalType": "address",
          "name": "endereco",
          "type": "address"
        },
        {
          "internalType": "uint8",
          "name": "unidadeConsumidora",
          "type": "uint8"
        },
        {
          "internalType": "uint8",
          "name": "consumida",
          "type": "uint8"
        },
        {
          "internalType": "uint8",
          "name": "injetada",
          "type": "uint8"
        }
      ],
      "name": "setProsumer",
      "outputs": [],
      "stateMutability": "nonpayable",
      "type": "function"
    },
    {
      "inputs": [],
      "name": "getProsumerArr",
      "outputs": [
        {
          "components": [
            {
              "internalType": "uint16",
              "name": "uc",
              "type": "uint16"
            },
            {
              "internalType": "uint16",
              "name": "energiaConsumida",
              "type": "uint16"
            },
            {
              "internalType": "uint16",
              "name": "energiaInjetada",
              "type": "uint16"
            }
          ],
          "internalType": "struct EnergyTrade.Prosumer[]",
          "name": "",
          "type": "tuple[]"
        }
      ],
      "stateMutability": "view",
      "type": "function",
      "constant": true
    },
    {
      "inputs": [
        {
          "internalType": "address",
          "name": "endereco",
          "type": "address"
        }
      ],
      "name": "pagarProsumerOwner",
      "outputs": [],
      "stateMutability": "nonpayable",
      "type": "function"
    },
    {
      "inputs": [],
      "name": "info",
      "outputs": [
        {
          "internalType": "uint256",
          "name": "",
          "type": "uint256"
        }
      ],
      "stateMutability": "view",
      "type": "function",
      "constant": true
    }
  ],
  "bytecode": "0x60806040523480156200001157600080fd5b5060405162001286380380620012868339818101604052810190620000379190620000d6565b33600160006101000a81548173ffffffffffffffffffffffffffffffffffffffff021916908373ffffffffffffffffffffffffffffffffffffffff160217905550806000806101000a81548173ffffffffffffffffffffffffffffffffffffffff021916908373ffffffffffffffffffffffffffffffffffffffff160217905550506200016f565b600081519050620000d08162000155565b92915050565b600060208284031215620000ef57620000ee62000150565b5b6000620000ff84828501620000bf565b91505092915050565b6000620001158262000130565b9050919050565b6000620001298262000108565b9050919050565b600073ffffffffffffffffffffffffffffffffffffffff82169050919050565b600080fd5b62000160816200011c565b81146200016c57600080fd5b50565b611107806200017f6000396000f3fe608060405234801561001057600080fd5b506004361061007d5760003560e01c80638da5cb5b1161005b5780638da5cb5b146100dc5780639ef9424a146100fa578063d991ea5e14610116578063e71a0933146101325761007d565b806319c155b314610082578063370158ea146100a0578063561c9dc6146100be575b600080fd5b61008a610162565b6040516100979190610e26565b60405180910390f35b6100a8610168565b6040516100b59190610e26565b60405180910390f35b6100c661020e565b6040516100d39190610dc4565b60405180910390f35b6100e461039c565b6040516100f19190610d72565b60405180910390f35b610114600480360381019061010f9190610b59565b6103c2565b005b610130600480360381019061012b9190610b2c565b610738565b005b61014c60048036038101906101479190610bed565b610a57565b6040516101599190610d72565b60405180910390f35b60035481565b60008060009054906101000a900473ffffffffffffffffffffffffffffffffffffffff1673ffffffffffffffffffffffffffffffffffffffff166318160ddd6040518163ffffffff1660e01b815260040160206040518083038186803b1580156101d157600080fd5b505afa1580156101e5573d6000803e3d6000fd5b505050506040513d601f19601f820116820180604052508101906102099190610c1a565b905090565b6060600060035467ffffffffffffffff81111561022e5761022d610fc9565b5b60405190808252806020026020018201604052801561026757816020015b610254610a96565b81526020019060019003908161024c5790505b5090506000600190505b60035481101561039457600460006002838154811061029357610292610f9a565b5b9060005260206000200160009054906101000a900473ffffffffffffffffffffffffffffffffffffffff1673ffffffffffffffffffffffffffffffffffffffff1673ffffffffffffffffffffffffffffffffffffffff1681526020019081526020016000206040518060600160405290816000820160009054906101000a900461ffff1661ffff1661ffff1681526020016000820160029054906101000a900461ffff1661ffff1661ffff1681526020016000820160049054906101000a900461ffff1661ffff1661ffff168152505082828151811061037657610375610f9a565b5b6020026020010181905250808061038c90610f22565b915050610271565b508091505090565b600160009054906101000a900473ffffffffffffffffffffffffffffffffffffffff1681565b600160009054906101000a900473ffffffffffffffffffffffffffffffffffffffff1673ffffffffffffffffffffffffffffffffffffffff163373ffffffffffffffffffffffffffffffffffffffff1614610452576040517f08c379a000000000000000000000000000000000000000000000000000000000815260040161044990610e06565b60405180910390fd5b8260ff16600460008673ffffffffffffffffffffffffffffffffffffffff1673ffffffffffffffffffffffffffffffffffffffff16815260200190815260200160002060000160009054906101000a900461ffff1661ffff161461061157600060405180606001604052808560ff1661ffff1681526020018460ff1661ffff1681526020018360ff1661ffff16815250905080600460008773ffffffffffffffffffffffffffffffffffffffff1673ffffffffffffffffffffffffffffffffffffffff16815260200190815260200160002060008201518160000160006101000a81548161ffff021916908361ffff16021790555060208201518160000160026101000a81548161ffff021916908361ffff16021790555060408201518160000160046101000a81548161ffff021916908361ffff1602179055509050506002859080600181540180825580915050600190039060005260206000200160009091909190916101000a81548173ffffffffffffffffffffffffffffffffffffffff021916908373ffffffffffffffffffffffffffffffffffffffff1602179055506003600081548092919061060690610f22565b919050555050610732565b8260ff16600460008673ffffffffffffffffffffffffffffffffffffffff1673ffffffffffffffffffffffffffffffffffffffff16815260200190815260200160002060000160006101000a81548161ffff021916908361ffff1602179055508160ff16600460008673ffffffffffffffffffffffffffffffffffffffff1673ffffffffffffffffffffffffffffffffffffffff16815260200190815260200160002060000160026101000a81548161ffff021916908361ffff1602179055508060ff16600460008673ffffffffffffffffffffffffffffffffffffffff1673ffffffffffffffffffffffffffffffffffffffff16815260200190815260200160002060000160046101000a81548161ffff021916908361ffff1602179055505b50505050565b600160009054906101000a900473ffffffffffffffffffffffffffffffffffffffff1673ffffffffffffffffffffffffffffffffffffffff163373ffffffffffffffffffffffffffffffffffffffff16146107c8576040517f08c379a00000000000000000000000000000000000000000000000000000000081526004016107bf90610e06565b60405180910390fd5b600460008273ffffffffffffffffffffffffffffffffffffffff1673ffffffffffffffffffffffffffffffffffffffff16815260200190815260200160002060000160029054906101000a900461ffff1661ffff16600460008373ffffffffffffffffffffffffffffffffffffffff1673ffffffffffffffffffffffffffffffffffffffff16815260200190815260200160002060000160049054906101000a900461ffff1661ffff16116108b2576040517f08c379a00000000000000000000000000000000000000000000000000000000081526004016108a990610de6565b60405180910390fd5b60003390506000600460008473ffffffffffffffffffffffffffffffffffffffff1673ffffffffffffffffffffffffffffffffffffffff16815260200190815260200160002060000160029054906101000a900461ffff16600460008573ffffffffffffffffffffffffffffffffffffffff1673ffffffffffffffffffffffffffffffffffffffff16815260200190815260200160002060000160049054906101000a900461ffff166109659190610e8b565b61ffff16905060008054906101000a900473ffffffffffffffffffffffffffffffffffffffff1673ffffffffffffffffffffffffffffffffffffffff166323b872dd8330846040518463ffffffff1660e01b81526004016109c893929190610d8d565b602060405180830381600087803b1580156109e257600080fd5b505af11580156109f6573d6000803e3d6000fd5b505050506040513d601f19601f82011682018060405250810190610a1a9190610bc0565b507fc599fcda345dd08ee43d1018ca35bb1ec28c1a835d3383590637abe239e2c18182604051610a4a9190610d72565b60405180910390a1505050565b60028181548110610a6757600080fd5b906000526020600020016000915054906101000a900473ffffffffffffffffffffffffffffffffffffffff1681565b6040518060600160405280600061ffff168152602001600061ffff168152602001600061ffff1681525090565b600081359050610ad281611075565b92915050565b600081519050610ae78161108c565b92915050565b600081359050610afc816110a3565b92915050565b600081519050610b11816110a3565b92915050565b600081359050610b26816110ba565b92915050565b600060208284031215610b4257610b41610ff8565b5b6000610b5084828501610ac3565b91505092915050565b60008060008060808587031215610b7357610b72610ff8565b5b6000610b8187828801610ac3565b9450506020610b9287828801610b17565b9350506040610ba387828801610b17565b9250506060610bb487828801610b17565b91505092959194509250565b600060208284031215610bd657610bd5610ff8565b5b6000610be484828501610ad8565b91505092915050565b600060208284031215610c0357610c02610ff8565b5b6000610c1184828501610aed565b91505092915050565b600060208284031215610c3057610c2f610ff8565b5b6000610c3e84828501610b02565b91505092915050565b6000610c538383610d12565b60608301905092915050565b610c6881610ebf565b82525050565b6000610c7982610e51565b610c838185610e69565b9350610c8e83610e41565b8060005b83811015610cbf578151610ca68882610c47565b9750610cb183610e5c565b925050600181019050610c92565b5085935050505092915050565b6000610cd9602683610e7a565b9150610ce482610ffd565b604082019050919050565b6000610cfc601383610e7a565b9150610d078261104c565b602082019050919050565b606082016000820151610d286000850182610d54565b506020820151610d3b6020850182610d54565b506040820151610d4e6040850182610d54565b50505050565b610d5d81610edd565b82525050565b610d6c81610f0b565b82525050565b6000602082019050610d876000830184610c5f565b92915050565b6000606082019050610da26000830186610c5f565b610daf6020830185610c5f565b610dbc6040830184610d63565b949350505050565b60006020820190508181036000830152610dde8184610c6e565b905092915050565b60006020820190508181036000830152610dff81610ccc565b9050919050565b60006020820190508181036000830152610e1f81610cef565b9050919050565b6000602082019050610e3b6000830184610d63565b92915050565b6000819050602082019050919050565b600081519050919050565b6000602082019050919050565b600082825260208201905092915050565b600082825260208201905092915050565b6000610e9682610edd565b9150610ea183610edd565b925082821015610eb457610eb3610f6b565b5b828203905092915050565b6000610eca82610eeb565b9050919050565b60008115159050919050565b600061ffff82169050919050565b600073ffffffffffffffffffffffffffffffffffffffff82169050919050565b6000819050919050565b600060ff82169050919050565b6000610f2d82610f0b565b91507fffffffffffffffffffffffffffffffffffffffffffffffffffffffffffffffff821415610f6057610f5f610f6b565b5b600182019050919050565b7f4e487b7100000000000000000000000000000000000000000000000000000000600052601160045260246000fd5b7f4e487b7100000000000000000000000000000000000000000000000000000000600052603260045260246000fd5b7f4e487b7100000000000000000000000000000000000000000000000000000000600052604160045260246000fd5b600080fd5b7f456e657267696120636f6e73756d696461206d61696f7220717565206120696e60008201527f6a65746164610000000000000000000000000000000000000000000000000000602082015250565b7f52656d6574656e746520696e76616c69646f2100000000000000000000000000600082015250565b61107e81610ebf565b811461108957600080fd5b50565b61109581610ed1565b81146110a057600080fd5b50565b6110ac81610f0b565b81146110b757600080fd5b50565b6110c381610f15565b81146110ce57600080fd5b5056fea2646970667358221220c5777da89039776ba6581f605d2f180e3fe4dc779ef6e977594c90d8ec3cca2264736f6c63430008070033",
  "immutableReferences": {},
  "source": "// SPDX-License-Identifier: GPL-3.0\r\n\r\npragma solidity ^0.8.3;\r\n\r\nimport \"@openzeppelin/contracts/token/ERC20/IERC20.sol\";\r\n\r\ncontract EnergyTrade {\r\n\r\n    IERC20 private _token;\r\n    address public owner;\r\n    address[] public prosumer;\r\n    uint256 public prosumerCount;\r\n    mapping(address => Prosumer) addressToProsumer;\r\n    event prosumerPago(address from);\r\n\r\n    struct Prosumer {\r\n        uint16 uc; //Unidade consumidora\r\n        uint16 energiaConsumida; //Energia consumida em Kwh\r\n        uint16 energiaInjetada; //Energia injetada em Kwh\r\n    }\r\n\r\n    constructor( IERC20 token ) {\r\n        owner = msg.sender;\r\n        _token = token;\r\n    }\r\n\r\n    //So trechos de cdigos que sero executados antes das funes.\r\n    //Uma das aplicaes mais conhecidas  a de controle de acesso\r\n    //para que somente endereos especficos possam executar uma funo\r\n    modifier isOwner() {\r\n        require(msg.sender == owner, \"Remetente invalido!\");\r\n        _;\r\n    }\r\n\r\n    // function setTokenAddress( IERC20 tokenAddress) public isOwner {\r\n    //     _token = tokenAddress;\r\n    // }\r\n\r\n    function setProsumer(\r\n        address endereco,\r\n        uint8 unidadeConsumidora,\r\n        uint8 consumida,\r\n        uint8 injetada\r\n    ) public isOwner {\r\n        if (addressToProsumer[endereco].uc != unidadeConsumidora) {\r\n            Prosumer memory newprosumer = Prosumer({\r\n                uc: unidadeConsumidora,\r\n                energiaConsumida: consumida,\r\n                energiaInjetada: injetada\r\n            });\r\n\r\n            addressToProsumer[endereco] = newprosumer;\r\n            prosumer.push(endereco);\r\n            prosumerCount++;\r\n        } else {\r\n            addressToProsumer[endereco].uc = unidadeConsumidora;\r\n            addressToProsumer[endereco].energiaConsumida = consumida;\r\n            addressToProsumer[endereco].energiaInjetada = injetada;\r\n        }\r\n    }\r\n\r\n    function getProsumerArr() public view returns (Prosumer[] memory) {\r\n        Prosumer[] memory result = new Prosumer[](prosumerCount);\r\n        for (uint256 i = 1; i < prosumerCount; i++) {\r\n            result[i] = addressToProsumer[prosumer[i]];\r\n        }\r\n\r\n        return result;\r\n    }\r\n\r\n    function pagarProsumerOwner(address endereco) public isOwner {\r\n        require(\r\n            addressToProsumer[endereco].energiaInjetada >\r\n                addressToProsumer[endereco].energiaConsumida,\r\n            \"Energia consumida maior que a injetada\"\r\n        );\r\n        address from = msg.sender;\r\n\r\n        uint256 value = addressToProsumer[endereco].energiaInjetada -\r\n            addressToProsumer[endereco].energiaConsumida;\r\n\r\n        _token.transferFrom(from, address(this), value);\r\n\r\n        emit prosumerPago(from);\r\n    }\r\n\r\n    function info() public view returns (uint256) {\r\n        return _token.totalSupply();\r\n    }\r\n}\r\n",
  "sourcePath": "C:\\Users\\felip\\Downloads\\renew\\Blockchain\\contracts\\EnergyTrade.sol",
  "compiler": {
    "name": "solc",
    "version": "0.8.7+commit.e28d00a7.Emscripten.clang"
  },
  "schemaVersion": "3.4.16",
  "updatedAt": "2023-10-10T17:54:32.494Z",
  "networkType": "ethereum",
  "devdoc": {
    "kind": "dev",
    "methods": {},
    "version": 1
  },
  "userdoc": {
    "kind": "user",
    "methods": {},
    "version": 1
  }
}